:04000000FEEFFFF020
:10200000009626000000000000002E2A00000000BC
:10201000DA280000000000000000000000000000BE
:1020200000000000000000000000000000000000B0
:10203000000000000000000000000000004829002F
:102040002629000429000000004D696E3A20313035
:1020500030204D61783A20313030302025640D0A2F
:10206000004D696E3A2031204D61783A203430209D
:1020700025640D0A0048656C6C6F20576F726C64A4
:072080002E2E2E0D0A0000B8
:102088001F50D96EDA6A6F007FFFF6FF200EF76ED9
:10209800000EF86E0800F550250AD8A456EF10F087
:1020A80058EF10F01BEF11F01F50D96EDA6ADF2AD3
:1020B800000E476E000E466E46C04CF048684968F0
:1020C8001F50D96EDA6ADF50236E60008FF0F6FF7A
:1020D800200EF76E000EF86E0800F550640AD8B4AA
:1020E80078EF10F07AEF10F08BEF10F060008FF0BF
:1020F800F6FF200EF76E000EF86E0800F550690A1C
:10210800D8A489EF10F08BEF10F015EF11F02050E4
:10211800D96EDA6A020EDF26DF5CD96EDA6A6F00E2
:1021280078FF24F06F0078FF25F01F50D96EDA6A27
:102138002328DF6E200E286E25BEA5EF10F0A8EF2D
:1021480010F0010EA9EF10F0000E226E280628509C
:10215800600FD96EDA6A24C013F025C014F0000E9F
:10216800166E0A0E156E64EC12F013C019F014C046
:102178001AF053EC14F01950300FDF6E24C001F040
:1021880025C002F0000E046E0A0E036E02EC12F077
:1021980001C024F002C025F024502510D8B4D7EF90
:1021A80010F0D9EF10F0E1EF10F02850D8A4DFEFCD
:1021B80010F0E1EF10F0AAEF10F02850D8B4E7EFD4
:1021C80010F0E9EF10F00AEF11F02250D8B4EFEF59
:1021D80010F0F1EF10F00AEF11F028062850600F08
:1021E800D96EDA6A2D0EDF6E0AEF11F02850600FF3
:1021F800D96EDA6ADF50216E2150036E046A1DC061
:1022080005F01EC006F032EC11F0282A200E28181E
:10221800D8A411EF11F013EF11F0FAEF10F031EF2D
:1022280011F01F50D96EDA6ADF2A31EF11F01F5012
:10223800D96EDA6A6F007FFFF6FF200EF76E000E88
:10224800F86E0800F550036E046A1DC005F01EC044
:1022580006F032EC11F015EF11F0120005500610DF
:10226800D8B439EF11F03BEF11F044EF11F00550FD
:102278000610D8A442EF11F044EF11F049EF11F025
:102288000350C4EC14F09DEF11F020EE0AF0055055
:10229800D9260650DA22DE50DE10D8B456EF11F0F7
:1022A80058EF11F073EF11F020EE0AF00550D9261F
:1022B8000650DA2210EE03F00550E1260650E2221D
:1022C800DE50E65CE650800A0B6EDE50800A0B5842
:1022D800D8B071EF11F073EF11F09DEF11F020EE0F
:1022E80003F00550D9260650DA226F0078FF07F070
:1022F8006F0074FF08F0600017F0D9FF60001BF052
:10230800DAFF6F0078FF09F06F0074FF0AF00750DA
:102318000924D96E08500A20DA6E60000FF0DFFF3A
:1023280020EE03F00550D9260650DA22DE2A000EE8
:10233800DD221200000EBA6E000EBB6E000EBC6EDF
:10234800000EBD6E000EBE6EC268FD0EC36EC46880
:10235800FE0EC56E070EC66E3A014069FD0E506F3F
:102368006069FC0E706F070E806F000E416F000EE3
:10237800516F000E616F000E716F000E816F000EBD
:10238800426F000E526F000E626F000E726F000EE9
:10239800826F4369536963697369070E836F446980
:1023A8005469646974690F0E846F000E5A6F000EC9
:1023B8005B6F000E6A6F000E6B6F000E7A6F000E77
:1023C8007B6F190EE86F160E186F000E456F000E22
:1023D800466F000E476F000E556F000E566F000EC9
:1023E800576F000E656F000E666F000E676F000E68
:1023F800856F000E866F000E876F1200000E066E46
:1024080004BE0BEF12F009EF12F011EF12F0036C9B
:10241800041ED8B0042A010E066E02BE18EF12F090
:1024280016EF12F01EEF12F0016C021ED8B0022A4D
:10243800010E061A000E086E000E076E03500410F7
:10244800D8B429EF12F02BEF12F053EF12F0010E6F
:10245800056E33EF12F0D89003360436052A04AE21
:1024680038EF12F03AEF12F02FEF12F0D89007364B
:1024780008360350015C04500258D8A046EF12F009
:1024880048EF12F04DEF12F00350015E0450025A6B
:102498000780D89004320332052E3AEF12F0065026
:1024A800D8B459EF12F05BEF12F05FEF12F0076C3F
:1024B800081ED8B0082A07C001F008C002F01200B0
:1024C800000E186E14BE6DEF12F06BEF12F073EF82
:1024D80012F0136C141ED8B0142A010E186E16BE12
:1024E8007AEF12F078EF12F07EEF12F0156C161EEC
:1024F800D8B0162A15501610D8B485EF12F087EF09
:1025080012F0ABEF12F0010E176E8FEF12F0D890A9
:1025180015361636172A16AE94EF12F096EF12F00B
:102528008BEF12F01550135C16501458D8A09FEF7B
:1025380012F0A1EF12F0A5EF12F01550135E16502D
:10254800145AD89016321532172E96EF12F01850EA
:10255800D8B4B1EF12F0B3EF12F0B7EF12F0136C7A
:10256800141ED8B0142A13C013F014C014F01200AB
:10257800F9EC14F04BEC13F0000E016E000E026E35
:1025880037EC14F001C005F002C006F0D3EC14F0EB
:10259800750E2E6EE0EC14F0610E2E6E000E1A6EA3
:1025A800010E196E000E1C6E280E1B6E05EC13F042
:1025B80019C02FF01AC030F0E0EC14F0490E2E6E5E
:1025C800000E1A6E640E196E030E1C6EE80E1B6E5A
:1025D80005EC13F019C02FF01AC030F0E0EC14F03D
:1025E800290E336E960E326E7F0EE82EFED7322EEF
:1025F800FCD7332EFAD70000CB72CCEF12F0FEEFE7
:10260800FFF0000E236E000E226E000E216E000EEB
:10261800206E1B50195C1A50800A1D6E1C50800ACF
:102628001D58D8B01AEF13F01CEF13F028EF13F071
:1026380019C022F01AC023F0010E1B24206E000ED0
:102648001C20216E32EF13F0010E1B24226E000EA7
:102658001C20236E19C020F01AC021F085EC13F05D
:102668000DC013F00EC014F02250205C156E2350DC
:102678002158166E64EC12F0225013241E6E23505B
:1026880014201F6E1EC019F01FC01AF01200000E91
:102698003D01D06F000ED26F000ED46F000ED66FC2
:1026A800000ED86FB00EDA6F800EDB6F000EDC6F95
:1026B800820EDD6F060EDE6F2E0EDF6F000EE06FEE
:1026C800800EE16F000EE26F000E016E000E026ECA
:1026D800000E036EA4EC14F0000E016E000E026EE4
:1026E800000E036E93EC14F0000E016E000E026EE5
:1026F800000E036E82EC14F0000E4B6E000E4A6E54
:1027080012004DC001F04EC002F04FC003F050C09F
:1027180004F02D0E056E7F0E066E950E076E4C0E9C
:10272800086EBBEC13F0010E01244D6E000E022062
:102738004E6E000E03204F6E000E0420506E4DC0EA
:102748000FF04EC010F04FC011F050C012F0120E32
:10275800B3EF13F0D8901232113210320F32E82E44
:10276800AEEF13F00FC00DF010C00EF01200000E07
:10277800096E000E0A6E000E0B6E000E0C6E01A0A4
:10278800C8EF13F0CAEF13F0D2EF13F00550092683
:1027980006500A2207500B2208500C22D890053602
:1027A800063607360836D890043203320232013230
:1027B8000150021003100410D8A4E5EF13F0E7EF5E
:1027C80013F0C3EF13F009C001F00AC002F00BC008
:1027D80003F00CC004F012002BC02DF0FEEF13F034
:1027E80029C01DF02AC01EF02D0E1F6E2CC020F02F
:1027F80044EC10F06000B7F0F6FF200EF76E000E04
:10280800F86E0800F5500009D8A40DEF14F00FEF8A
:1028180014F0F4EF13F0000E2A6E000E296E120069
:10282800D29A3901A191D280000E016E000E026E7B
:10283800000E036E10EC15F03901A591D282000E3E
:10284800016E000E026E000E036E09EC15F03901E0
:10285800A79BD284000E016E000E026E000E036E5E
:1028680002EC15F0120001500210D8B43EEF14F03B
:1028780040EF14F04EEF14F0600007F0D9FF60004D
:102888000BF0DAFFFF0EDE6EFF0EDE6EFF0EDE6E61
:10289800FF0EDD6E016802680368046812001ABE44
:1028A80058EF14F05AEF14F060EF14F019C019F053
:1028B8001AC01AF06CEF14F019C01BF01AC01CF003
:1028C8001B1E1C1E1B4A1C2A1BC019F01CC01AF018
:1028D8001200000E016E3D01DFAB75EF14F077EFCB
:1028E80014F080EF14F0DAAB7CEF14F07EEF14F004
:1028F80080EF14F0010E016E015012000150021019
:102908000310D8B48AEF14F08CEF14F092EF14F09F
:1029180001C034F002C035F003C036F01200015097
:1029280002100310D8B49BEF14F09DEF14F0A3EF3E
:1029380014F001C037F002C038F003C039F01200BB
:10294800015002100310D8B4ACEF14F0AEEF14F03D
:10295800B4EF14F001C03AF002C03BF003C03CF001
:10296800120000EE60F0200EEE6AE806FDE100EECF
:1029780034F01D0EEE6AE806FDE10001BCEF12F02E
:10298800026E6DEC14F00009D8B4CDEF14F0CFEF5F
:1029980014F0C5EF14F0025017EC15F01200FF0EFA
:1029A8000524076EFF0E0620086E07C04DF008C00C
:1029B8004EF04F6A506A12002F0E316E000E296ECB
:1029C800000E2A6E2EC02BF0310E2C6EF0EC13F098
:1029D8001200600E3901D96F000EDB6F000EDD6F3B
:1029E800080EDF6F000EDE6F1200EDEC14F09EECA7
:1029F80011F04BEC13F014EC14F0120001C03DF090
:102A080002C03EF003C03FF0120001C040F002C017
:102A180041F003C042F0120001C043F002C044F08C
:102A280003C045F01200016E600007F0D2FD1200ED
:020000040001F9
:04FFFC00B5EF14F059
:020000040030CA
:0A0000008FFFF7FF9FFFFFFFFFFFD8
:00000001FF
