:10002400000EC56E0F0E206E30EC00F0000E216E37
:10003400000F4AE64BEC00F0000E0F080AE605E05C
:10004400010E226E020ECD6E0300000E226ECD6EE6
:100054000300020E226E040ECD6E03000F0E236EFB
:10006400000E246E0A0E242A235EFDE223262406B3
:1000740023C060F024C023F0000E246E0A0E242A4C
:10008400235EFDE22326240623C061F024C062F02F
:100094001200000E236E000E246E0A0E242A235E24
:1000A400FDE22326240623C070F024C023F0000EB2
:1000B400246E0A0E242A235EFDE22326240623C08E
:1000C40071F024C072F01200E86C236E000E246EEE
:1000D4000A0E242A235EFDE22326240623C070F0A0
:1000E40024C023F0000E246E0A0E242A235EFDE2AF
:0E00F4002326240623C071F024C072F0A1D789
:020000040030CA
:0A000000F8FFFFFF9FFFFFFFFFFF67
:00000001FF
