:04000000FEEFFFF020
:1020000000496E707574204C696768743A00252E1B
:10201000326600204C757800696E66006E616E0055
:0120200000BF
:10202200000E0001EB6F35C0EEF036C0EFF037C0A6
:10203200F0F038C0F1F0F1BF23EF10F021EF10F013
:1020420037EF10F0010EEB6FEEC001F0EFC002F0BF
:10205200F0C003F0F1C004F0E0EC22F001C0EEF0B9
:1020620002C0EFF003C0F0F004C0F1F0000E000176
:10207200ED6F000EEC6F58C0DBF059C0DCF0EB5195
:10208200D8B446EF10F048EF10F05CEF10F0EB51CF
:10209200D8A44EEF10F050EF10F056EF10F0000EF3
:1020A200D16F2B0ED06F5AEF10F0000ED16F2D0EA4
:1020B200D06FD0C0EBF0EEC001F0EFC002F0F0C084
:1020C20003F0F1C004F0AFEC1FF001040210D8A439
:1020D2006DEF10F06FEF10F099EF10F00001EB517F
:1020E200D8B476EF10F078EF10F081EF10F0EBC07B
:1020F20070F0DB07D8A0DC07000EED6F010EEC6F6D
:10210200EC51700F016E180E026EC3EC22F000014A
:10211200FD0EDB27FF0EDC2334C00EF0700E0F6EB7
:10212200DBC010F0DCC011F09EEC21F0E5EF14F002
:10213200EEC001F0EFC002F0F0C003F0F1C004F015
:10214200AFEC1FF001500210D8A4AAEF10F0ACEFD0
:1021520010F0C7EF10F00001EB51D8B4B3EF10F05C
:10216200B5EF10F0BEEF10F0EBC070F0DB07D8A0B7
:10217200DC07000EED6F010EEC6FEC51700F016E7B
:102182001C0E026EC3EC22F088EF10F0000E00016C
:10219200F26F000EF36F800EF46F3F0EF56F000EBC
:1021A200DA6F000ED96FEEC001F0EFC002F0F0C09E
:1021B20003F0F1C004F0000E056E000E066E000E74
:1021C200076E000E086EDFEC20F0D8B0EBEF10F0D7
:1021D200EDEF10F0CCEF11F0FAEF10F0DDC0F2F0FD
:1021E200DEC0F3F0DFC0F4F0E0C0F5F00001D94B3F
:1021F200DA2BF2C00FF0F3C010F0F4C011F0F5C00A
:1022020012F0000E136E000E146E200E156E410EAB
:10221200166E46EC17F00FC0DDF010C0DEF011C0F4
:10222200DFF012C0E0F00001DD51EE5D016EDE5123
:10223200EF59026EDF51F059036EE051F159046E0D
:10224200CFEC21F004BE31EF11F004500310021064
:1022520009E1020E015CD8A031EF11F033EF11F069
:10226200EFEF10F0DDC028F0DEC029F0DFC02AF069
:10227200E0C02BF0EEC02CF0EFC02DF0F0C02EF03D
:10228200F1C02FF02DEC1FF0D8A04AEF11F04CEF67
:1022920011F0EFEF10F00001F251EE5D016EF3511B
:1022A200EF59026EF451F059036EF551F159046E73
:1022B200CFEC21F004BE6BEF11F0045003100210BA
:1022C20007E1020E015CD8B069EF11F06BEF11F07B
:1022D200B3EF11F0F2C0EEF0F3C0EFF0F4C0F0F0A3
:1022E200F5C0F1F0CCEF11F0F2C001F0F3C002F052
:1022F200F4C003F0F5C004F0000E056E000E066E89
:10230200200E076E410E086E6DEC19F001C0F2F05E
:1023120002C0F3F003C0F4F004C0F5F00001D907E5
:10232200D8A0DA07F251EE5D016EF351EF59026E59
:10233200F451F059036EF551F159046ECFEC21F0CE
:1023420004BEB1EF11F004500310021007E1020EB7
:10235200015CD8B0AFEF11F0B1EF11F0B3EF11F0B3
:102362006BEF11F0EEC028F0EFC029F0F0C02AF0B8
:10237200F1C02BF0F2C02CF0F3C02DF0F4C02EF01F
:10238200F5C02FF02DEC1FF0D8A0CAEF11F0CCEF62
:1023920011F075EF11F039C0D3F0D3C0D4F05BBEA9
:1023A200D5EF11F0D7EF11F0DDEF11F05AC0CCF0FC
:1023B2005BC0CDF0E2EF11F0000E0001CD6F060E12
:1023C200CC6FCCC0D7F0CDC0D8F00001D74BD82B02
:1023D200660ED419D8A4F0EF11F0F2EF11F012EF5B
:1023E20012F0DABFF9EF11F0F7EF11F005EF12F08A
:1023F200000EF26F000EF36F800EF46F3F0EF56F5A
:10240200000EDA6F000ED96F670ED319D8B40CEF35
:1024120012F00EEF12F012EF12F0D951D727DA5163
:10242200D823000EE26F000EE16FEEC0E3F0EFC0C2
:10243200E4F0F0C0E5F0F1C0E6F0F2C0DDF0F3C088
:10244200DEF0F4C0DFF0F5C0E0F0A3EF12F0E3C07D
:1024520001F0E4C002F0E5C003F0E6C004F0F2C00F
:1024620005F0F3C006F0F4C007F0F5C008F06DEC1B
:1024720019F001C01AF002C01BF003C01CF004C026
:102482001DF03AEC1BF01AC0E7F01BC0E8F01CC0CC
:10249200E9F01DC0EAF0E7C001F0E8C002F0E9C0CF
:1024A20003F0EAC004F0AAEC1EF001C0D5F002C0AD
:1024B200D6F0E3C028F0E4C029F0E5C02AF0E6C077
:1024C2002BF0E7C013F0E8C014F0E9C015F0EAC041
:1024D20016F0F2C00FF0F3C010F0F4C011F0F5C026
:1024E20012F046EC17F00FC02CF010C02DF011C006
:1024F2002EF012C02FF01FEC22F028C0E3F029C00A
:10250200E4F02AC0E5F02BC0E6F0F2C001F0F3C01F
:1025120002F0F4C003F0F5C004F0000E056E000EE8
:10252200066E200E076E410E086E6DEC19F001C0AA
:10253200F2F002C0F3F003C0F4F004C0F5F00001C1
:10254200E14BE22BD751E15DE251800A3A6ED8515C
:10255200800A3A58D8A0B0EF12F0B2EF12F028EF8A
:1025620012F0F2C00FF0F3C010F0F4C011F0F5C099
:1025720012F0000E136E000E146EA00E156E400EB9
:10258200166E46EC17F00FC0E7F010C0E8F011C06D
:10259200E9F012C0EAF0E3C028F0E4C029F0E5C097
:1025A2002AF0E6C02BF0E7C02CF0E8C02DF0E9C01D
:1025B2002EF0EAC02FF02DEC1FF0D8B0E3EF12F0AE
:1025C200E5EF12F0F0EF12F0000E0001E76F000EDF
:1025D200E86F000EE96F000EEA6F19EF13F0E3C027
:1025E20001F0E4C002F0E5C003F0E6C004F0E7C089
:1025F20005F0E8C006F0E9C007F0EAC008F0DFEC39
:1026020020F0D8A007EF13F009EF13F019EF13F041
:102612000001D5B10FEF13F011EF13F019EF13F022
:10262200000EE76F000EE86F000EE96F000EEA6F12
:10263200EEC001F0EFC002F0F0C003F0F1C004F010
:10264200E7C005F0E8C006F0E9C007F0EAC008F00C
:10265200E6EC14F001C0E3F002C0E4F003C0E5F0E0
:1026620004C0E6F0E3C028F0E4C029F0E5C02AF097
:10267200E6C02BF0000E136E000E146E200E156EC7
:10268200410E166EDDC00FF0DEC010F0DFC011F09B
:10269200E0C012F046EC17F00FC02CF010C02DF085
:1026A20011C02EF012C02FF02DEC1FF0D8A05CEF5D
:1026B20013F05EEF13F087EF13F00001D94BDA2B22
:1026C200DDC00FF0DEC010F0DFC011F0E0C012F08C
:1026D200000E136E000E146E200E156E410E166E55
:1026E20046EC17F00FC0DDF010C0DEF011C0DFF0D5
:1026F20012C0E0F0660E0001D419D8A483EF13F0E3
:1027020085EF13F087EF13F0D74BD82BDDC0F2F033
:10271200DEC0F3F0DFC0F4F0E0C0F5F0D9C0CAF0DB
:10272200DAC0CBF0000E0001D26F000ECF6F000EA8
:10273200CE6F000EE26F000EE16F7FEF14F0E3C088
:1027420001F0E4C002F0E5C003F0E6C004F0F2C01C
:1027520005F0F3C006F0F4C007F0F5C008F06DEC28
:1027620019F001C01AF002C01BF003C01CF004C033
:102772001DF03AEC1BF01AC0E7F01BC0E8F01CC0D9
:10278200E9F01DC0EAF0E7C001F0E8C002F0E9C0DC
:1027920003F0EAC004F0AAEC1EF002BEDCEF13F074
:1027A200025007E10A0E015CD8B0DAEF13F0DCEF59
:1027B20013F0ECEF13F0E7C001F0E8C002F0E9C05B
:1027C20003F0EAC004F0AAEC1EF001C0D5F002C08A
:1027D200D6F0F1EF13F0000E0001D66F090ED56F9F
:1027E2000001D251D8A4F8EF13F0FAEF13F01EEF64
:1027F20014F0CBBF01EF14F0FFEF13F01EEF14F053
:10280200EC51700FD96EDA6A2E0EDF6EEC4BED2BA7
:10281200DB07D8A0DC07010ED26F1EEF14F0EC51DB
:10282200700FD96EDA6A300EDF6EEC4BED2BDB07E0
:10283200D8A0DC07CE07D8A0CF07CE51CF11D8A49D
:1028420025EF14F027EF14F010EF14F0EC51700F95
:10285200D96EDA6AD551300FDF6EEC4BED2BDB0708
:10286200D8A0DC07E3C028F0E4C029F0E5C02AF0D4
:10287200E6C02BF0E7C013F0E8C014F0E9C015F091
:10288200EAC016F0F2C00FF0F3C010F0F4C011F07D
:10289200F5C012F046EC17F00FC02CF010C02DF06E
:1028A20011C02EF012C02FF01FEC22F028C0E3F06E
:1028B20029C0E4F02AC0E5F02BC0E6F0F2C001F036
:1028C200F3C002F0F4C003F0F5C004F0000E056E90
:1028D200000E066E200E076E410E086E6DEC19F0AA
:1028E20001C0F2F002C0F3F003C0F4F004C0F5F04E
:1028F2000001CA07D8A0CB07E14BE22BD751E15D1B
:10290200E251800A3A6ED851800A3A58D8B08CEF18
:1029120014F08EEF14F09CEF14F0EDBF9AEF14F068
:10292200ED5109E14B0EEC5DD8A09AEF14F09CEF4B
:1029320014F0A0EF13F0000EE26F4F0EE16FE151C1
:10294200700FD96EDA6ADF6AEC517008E125016E08
:10295200700E026EECC003F0EDC004F064EC22F0E5
:102962000001EC51E15DEC6FED51E259ED6FEB517D
:10297200D8A4BEEF14F0C1EF14F0010EC2EF14F0B0
:10298200000EE16FE26BEB51D8B4CAEF14F0CCEF5A
:1029920014F0D6EF14F0EC07D8A0ED07EC51700F4D
:1029A200D96EDA6A6000AFF3DFFFE151DB5FE2511B
:1029B200DC5B34C00EF0EC51700F0F6EDBC010F018
:1029C200DCC011F09EEC21F012000450800B0D6E61
:1029D200045004240F6E03AEF1EF14F0F3EF14F081
:1029E200F4EF14F00F800F50D8B4FAEF14F0FCEFAC
:1029F20014F011EF15F00F28D8A402EF15F004EF30
:102A020015F00CEF15F0000E016E000E026E000EB6
:102A1200036E000E046E038E000E046E19EF15F0A5
:102A2200000E016E000E026E000E036E000E046EAA
:102A32000850800B0E6E0D500E18D8B423EF15F00F
:102A420025EF15F026EF15F00D8C085008240E6EB8
:102A520007AE2EEF15F030EF15F031EF15F00E80C6
:102A62000E50D8B437EF15F039EF15F04EEF15F0E0
:102A72000E28D8A43FEF15F041EF15F049EF15F0FD
:102A8200000E056E000E066E000E076E000E086E3A
:102A9200078E000E086E56EF15F0000E056E000E42
:102AA200066E000E076E000E086E0F500E5CD8B058
:102AB2005DEF15F05FEF15F086EF15F00DAC64EFEA
:102AC20015F066EF15F068EF15F0800E0D1A0FC0C5
:102AD20010F00EC00FF010C00EF001C010F005C0D3
:102AE20001F010C005F002C010F006C002F010C0E4
:102AF20006F003C010F007C003F010C007F004C0D6
:102B020010F008C004F010C008F0000E106E0F5054
:102B12000EC009F00A6A095E000E0A5A0ABE9BEF4D
:102B220015F00A5009E11A0E095CD8A09BEF15F0C6
:102B32009DEF15F0D4EF15F00150021003100410B0
:102B4200D8A4A6EF15F0A9EF15F0010EAAEF15F023
:102B5200000E106E000E016E000E026E000E036E6D
:102B6200000E046E0EC00FF0DDEF15F010A0BCEFEA
:102B720015F0BEEF15F0C4EF15F0D8901030010932
:102B8200106EC6EF15F0D890103201A0CBEF15F001
:102B9200CDEF15F0CEEF15F0108E0434043203326F
:102BA200023201320F2A0E500F5CD8A0DBEF15F073
:102BB200DDEF15F0B7EF15F00DBCE2EF15F0E4EF25
:102BC20015F024EF16F00F50D8A4EAEF15F0ECEF51
:102BD20015F0F6EF15F0000E016E000E026E000EFB
:102BE200036E000E046E45EF17F0055001260650E5
:102BF2000222075003220850042204A003EF16F019
:102C020005EF16F0B1EF16F010A00AEF16F00CEF78
:102C120016F012EF16F0D89010300109106E14EF72
:102C220016F0D890103201A019EF16F01BEF16F033
:102C32001CEF16F0108E04340432033202320132D9
:102C42000F2AB1EF16F00550015C065002580750EA
:102C520003580450800A096E0850800A0958D8B0F7
:102C620035EF16F037EF16F062EF16F00150055C03
:102C7200096E025006580A6E035007580B6E045034
:102C820008580C6EFF0E0924016EFF0E0A20026E18
:102C9200FF0E0B20036EFF0E0C20046E800E0D1A29
:102CA200106C1050D8A458EF16F05AEF16F06AEFD5
:102CB20016F0010E0126000E0222032204226AEF00
:102CC20016F00550015E0650025A0750035A08508A
:102CD200045A0150021003100410D8A473EF16F026
:102CE20075EF16F0AAEF16F01050D8A47BEF16F08D
:102CF2007DEF16F0AAEF16F0000E016E000E026EC6
:102D0200000E036E000E046E45EF17F0D8900136E8
:102D120002360336043610AE91EF16F093EF16F03A
:102D220094EF16F0018010A099EF16F09BEF16F0C9
:102D32009FEF16F0D8801036A1EF16F0D89010361B
:102D42000F50D8B4A7EF16F0A9EF16F0AAEF16F0BD
:102D52000F0603AEAFEF16F0B1EF16F087EF16F0E5
:102D6200000E0E6E10AEB8EF16F0BAEF16F0D2EFFC
:102D720016F010C009F07F0E0916D8B4C3EF16F092
:102D8200C5EF16F0C9EF16F0010E0E6ED2EF16F077
:102D920001A0CEEF16F0D0EF16F0D2EF16F0C5EF8D
:102DA20016F00E50D8B4D8EF16F0DAEF16F005EFA1
:102DB20017F0010E0126000E02220322042204A0B3
:102DC200E5EF16F0E7EF16F005EF17F001C009F096
:102DD20002C00AF003C00BF004C00CF00C340C3239
:102DE2000B320A32093209C001F00AC002F00BC0EC
:102DF20003F00CC004F00F28D8B402EF17F004EF70
:102E020017F005EF17F00F2A0F28D8B40BEF17F0C1
:102E12000DEF17F015EF17F00F50D8A413EF17F0BE
:102E220015EF17F027EF17F0000E016E000E026E7D
:102E3200000E036E000E046E0F50D8A423EF17F09D
:102E420025EF17F027EF17F0000E0D6E0FA02CEFF5
:102E520017F02EEF17F031EF17F0038E32EF17F065
:102E6200039ED8900F30046E0DAE3AEF17F03CEF90
:102E720017F03DEF17F0048E01C001F002C002F01E
:102E820003C003F004C004F012001250800B1B6E4A
:102E920012501224216E11AE51EF17F053EF17F0BA
:102EA20054EF17F021802150D8B45AEF17F05CEF9D
:102EB20017F06FEF17F02128D8A462EF17F064EF34
:102EC20017F06CEF17F0000E0F6E000E106E000E72
:102ED200116E000E126E118E77EF17F0000E0F6E4C
:102EE200000E106E000E116E000E126E1650800B48
:102EF2001B1A16501624206E15AE82EF17F084EFBF
:102F020017F085EF17F020802050D8B48BEF17F020
:102F12008DEF17F0A0EF17F02028D8A493EF17F049
:102F220095EF17F09DEF17F0000E136E000E146E62
:102F3200000E156E000E166E158EA8EF17F0000E1D
:102F4200136E000E146E000E156E000E166E2050DB
:102F5200D8B4AEEF17F0B0EF17F0B8EF17F021507A
:102F6200D8A4B6EF17F0B8EF17F0C2EF17F0000EC3
:102F72000F6E000E106E000E116E000E126E6CEFD0
:102F820019F015500F026F00CCFF26F06F00D0FF32
:102F920027F026501C6E1D6A1E6A1F6A2750226E79
:102FA200236A246A256A145010026F00CCFF26F0AF
:102FB2006F00D0FF27F026501C26000E1D221E2275
:102FC2001F2227502226000E2322242225221350BC
:102FD20011026F00CCFF26F06F00D0FF27F02650C1
:102FE2001C26000E1D221E221F2227502226000E02
:102FF2002322242225221EC01FF01DC01EF01CC049
:103002001DF01C6A135010026F00CCFF26F06F00F7
:10301200D0FF27F026501C2627501D22000E1E220C
:10302200000E1F2214500F026F00CCFF26F06F001B
:10303200D0FF27F026501C2627501D22000E1E22EC
:10304200000E1F221EC01FF01DC01EF01CC01DF06E
:103052001C6A13500F026F00CCFF26F06F00D0FFE6
:1030620027F026501C2627501D22000E1E22000E7D
:103072001F22155010026F00CCFF26F06F00D0FF08
:1030820027F02650222627502322000E2422000E4B
:103092002522145011026F00CCFF26F06F00D0FFE2
:1030A20027F02650222627502322000E2422000E2B
:1030B2002522155011026F00CCFF26F06F00D0FFC1
:1030C20027F02650176E2750186E196A1A6A19C00F
:1030D2001AF018C019F017C018F0176A17502226F4
:1030E20018502322195024221A5025221CC017F0EE
:1030F2001DC018F01EC019F01FC01AF0190E87EF7C
:1031020018F0D8901A32193218321732E82E82EF9C
:1031120018F01750222618502322195024221A5030
:1031220025221EC01FF01DC01EF01CC01DF01C6A0F
:10313200205021C017F0186A1726000E1822820E9E
:103142001724266EFF0E1820276EBDEF18F0D890B8
:1031520022362336243625361FAEB2EF18F0B4EFEE
:1031620018F0B5EF18F02280D8901C361D361E36A6
:103172001F362606D8A0270624AEC2EF18F0C4EFE9
:1031820018F0A8EF18F0000E206E1FAECBEF18F06B
:10319200CDEF18F0F1EF18F0FF0E1C14176EFF0EB2
:1031A2001D14186EFF0E1E14196E7F0E1F141A6E58
:1031B2001750181019101A10D8B4E2EF18F0E4EFF3
:1031C20018F0E8EF18F0010E206EF1EF18F022A0CF
:1031D200EDEF18F0EFEF18F0F1EF18F0E4EF18F060
:1031E2002050D8B4F7EF18F0F9EF18F01DEF19F0EE
:1031F200010E2226000E23222422252225A004EFDE
:1032020019F006EF19F01DEF19F022C017F023C0D4
:1032120018F024C019F025C01AF01A341A321932E3
:103222001832173217C022F018C023F019C024F048
:103232001AC025F0264A272A27BE28EF19F0275060
:1032420008E12628D8A028EF19F02AEF19F034EF68
:1032520019F0000E226E000E236E800E246E7F0E79
:10326200256E62EF19F027BE41EF19F0275006E1F3
:103272002604D8B03FEF19F041EF19F04DEF19F0E5
:10328200000E226E000E236E000E246E000E256EBE
:10329200000E1B6E62EF19F026C021F0FF0E2216FF
:1032A200FF0E23167F0E2416000E251621A05CEFBA
:1032B20019F05EEF19F05FEF19F0248ED8902130EB
:1032C200256E1B50251222C00FF023C010F024C01F
:1032D20011F025C012F012000450800B116E045040
:1032E2000424186E03AE78EF19F07AEF19F07BEF31
:1032F20019F018801850D8B481EF19F083EF19F043
:1033020098EF19F01828D8A489EF19F08BEF19F06B
:1033120093EF19F0000E016E000E026E000E036EA6
:10332200000E046E038E000E046EA0EF19F0000E64
:10333200016E000E026E000E036E000E046E085047
:10334200800B111A08500824196E07AEABEF19F062
:10335200ADEF19F0AEEF19F019801950D8B4B4EFEF
:1033620019F0B6EF19F0CBEF19F01928D8A4BCEF79
:1033720019F0BEEF19F0C6EF19F0000E056E000E3F
:10338200066E000E076E000E086E078E000E086EA7
:10339200D3EF19F0000E056E000E066E000E076EDA
:1033A200000E086E0550061007100810D8A4DCEFB6
:1033B20019F0DEEF19F0F6EF19F0000E016E000EB3
:1033C200026E000E036E000E046E800E03127F0E5C
:1033D20004121150041201C001F002C002F003C035
:1033E20003F004C004F039EF1BF01850D8A4FCEF2E
:1033F20019F0FEEF19F008EF1AF0000E016E000E40
:10340200026E000E036E000E046E39EF1BF01950AF
:1034120018C009F00A6A095E000E0A5A7F0E0924D2
:10342200126E000E0A20136E01C00DF002C00EF0E3
:1034320003C00FF004C010F0000E016E000E026E09
:10344200000E036E000E046E000E146E000E156E5A
:10345200000E166E000E176E000E196E69EF1AF04E
:103462001950D8B437EF1AF039EF1AF050EF1AF0BA
:10347200D8900D360E360F361036D89001360236F9
:103482000336043617AE48EF1AF04AEF1AF04BEF44
:103492001AF00180D89014361536163617360550B4
:1034A2000D5C06500E5807500F5808501058D8A0FF
:1034B2005DEF1AF05FEF1AF068EF1AF0178C055003
:1034C2000D5E06500E5A07500F5A0850105A192A0C
:1034D200190E19646FEF1AF071EF1AF031EF1AF04A
:1034E2000D500E100F101010D8B47AEF1AF07CEFB6
:1034F2001AF094EF1AF0148094EF1AF0D890013673
:1035020002360336043617AE89EF1AF08BEF1AF043
:103512008CEF1AF00180D89014361536163617360D
:103522001206D8A0130603AE99EF1AF09BEF1AF019
:103532007FEF1AF0000E196E17AEA2EF1AF0A4EF89
:103542001AF0C8EF1AF0FF0E1414096EFF0E1514CC
:103552000A6EFF0E16140B6E7F0E17140C6E0950B6
:103562000A100B100C10D8B4B9EF1AF0BBEF1AF016
:10357200BFEF1AF0010E196EC8EF1AF001A0C4EFE6
:103582001AF0C6EF1AF0C8EF1AF0BBEF1AF0195092
:10359200D8B4CEEF1AF0D0EF1AF0F4EF1AF0010E11
:1035A2000126000E02220322042204A0DBEF1AF0FD
:1035B200DDEF1AF0F4EF1AF001C009F002C00AF0D0
:1035C20003C00BF004C00CF00C340C320B320A3284
:1035D200093209C001F00AC002F00BC003F00CC0AE
:1035E20004F0124A132A13BEFFEF1AF0135008E137
:1035F2001228D8A0FFEF1AF001EF1BF00CEF1BF01E
:10360200000E136E1268000E016E000E026E000EA6
:10361200036E000E046E13BE19EF1BF0135006E189
:103622001204D8B017EF1BF019EF1BF027EF1BF0B5
:10363200000E136E000E126E000E016E000E026E70
:10364200000E036E000E046E000E116E12C018F012
:1036520018A02EEF1BF030EF1BF033EF1BF0038EA0
:1036620034EF1BF0039ED8901830046EEAEF19F085
:10367200120060C02AF061C02BF062C02CF063C05F
:103682002DF01AC02AF01BC02BF01CC02CF01DC05C
:103692002DF0810E1E6EFF0E1F6E2AC020F02BC071
:1036A20021F02CC022F02DC023F0180E5EEF1BF08B
:1036B200D8902332223221322032E82E59EF1BF0E9
:1036C20020501E24286E000E1F20296E29BE73EF83
:1036D2001BF0295009E1170E285CD8A073EF1BF0EC
:1036E20075EF1BF07FEF1BF01AC01AF01BC01BF026
:1036F2001CC01CF01DC01DF042EF1CF029BE84EF5F
:103702001BF086EF1BF0F6EF1BF028C01EF0FF0E39
:103712001F6EFF0E206E7F0E216E000E226E1E6641
:1037220095EF1BF09DEF1BF0223422322132203222
:103732001F321E2E90EF1BF01FC024F020C025F078
:1037420021C026F022C027F024502A141E6E2550D4
:103752002B141F6E26502C14206E27502D14216E10
:103762001E501F1020102110D8A4BAEF1BF0BCEF7E
:103772001BF0BEEF1BF075EF1BF02AC01EF02BC032
:103782001FF02CC020F02DC021F0200ECEEF1BF038
:10379200D890213220321F321E32E82EC9EF1BF0A0
:1037A2001E501F1020102110D8B4DAEF1BF0DCEFEE
:1037B2001BF0E4EF1BF024502A2625502B22265022
:1037C2002C2227502D22241C1E6E251C1F6E261C07
:1037D200206E271C216E1E502A161F502B162050B9
:1037E2002C1621502D163AEF1CF02AC01EF02BC0C9
:1037F2001FF02CC020F02DC021F0200E06EF1CF08F
:10380200D890213220321F321E32E82E01EF1CF0F6
:103812001E501F1020102110D8A412EF1CF014EF1C
:103822001CF01EEF1CF0000E2A6E000E2B6E000E16
:103832002C6E000E2D6E3AEF1CF0D8902A341E6EBC
:103842002B341F6E2C34206E2D34216E1E501F100F
:1038520020102110D8B430EF1CF032EF1CF03AEFF8
:103862001CF0000E2A6E000E2B6E800E2C6EBF0E08
:103872002D6E2AC01AF02BC01BF02CC01CF02DC0DC
:103882001DF012003C50D96EDA6A6F007FFFF6FF1E
:10389200200EF76E000EF86E0800F550250AD8A427
:1038A20055EF1CF057EF1CF036EF1DF03C50D96E6F
:1038B200DA6ADF2A000E596E000E586E58C05EF0AA
:1038C2005A685B683C50D96EDA6A6F007FFFF6FF78
:1038D200200EF76E000EF86E0800F5502E0AD8A4DE
:1038E20075EF1CF077EF1CF085EF1CF03C50D96EA1
:1038F200DA6ADF2A3CC007F03DC008F02EEC20F067
:1039020007C05AF008C05BF03C50D96EDA6ADF504B
:10391200446E600013F1F6FF200EF76E000EF86E93
:1039220008006F00D4FF43F0A2EF1CF0442AB1EF6D
:103932001CF06C0E436EB1EF1CF0000E436EB1EF43
:103942001CF043504C0AD8B497EF1CF02A0AD8B4A2
:103952009AEF1CF00A0AD8B497EF1CF09EEF1CF005
:10396200600013F1F6FF200EF76E000EF86E0800ED
:10397200F550660AD8A4C0EF1CF0C2EF1CF030EF7D
:103982001DF0F6EF1CF03D50D96EDA6A6F007CFF35
:103992003EF0040EDF263E50D96EDA6A6F0078FFE1
:1039A2003FF06F0078FF40F06F0078FF41F06F004A
:1039B20078FF42F001EF1DF03D50D96EDA6A6F00D8
:1039C2007CFF3EF0040EDF263E50D96EDA6A6F00AD
:1039D20078FF3FF06F0078FF40F06F0078FF41F012
:1039E2006F0078FF42F001EF1DF043504C0AD8B44B
:1039F200DDEF1CF0200AD8B4C4EF1CF001EF1DF07B
:103A02003C50D96EDA6A4428DF6E21EF1DF03BC0CC
:103A120034F03FC035F040C036F041C037F042C00C
:103A220038F0600013F1F6FF200EF76E000EF86E0C
:103A320008006F00D4FF39F011EC10F04AEF1DF0CE
:103A4200600013F1F6FF200EF76E000EF86E08000C
:103A5200F550660AD8B408EF1DF030EF1DF03C5067
:103A6200D96EDA6ADF2A4AEF1DF03C50D96EDA6A63
:103A72006F007FFFF6FF200EF76E000EF86E080053
:103A8200F550016E026A3BC003F089EC20F030EF82
:103A92001DF01200096E0950D8B452EF1DF054EF18
:103AA2001DF076EF1DF004BE5BEF1DF059EF1DF027
:103AB20076EF1DF001C005F002C006F003C007F06A
:103AC20004C008F0051E061E071E081E052A000E69
:103AD20006220722082205C00BF006C00CF007C020
:103AE2000DF008C00EF07EEF1DF001C00BF002C019
:103AF2000CF003C00DF004C00EF0015002100310D0
:103B02000410D8A487EF1DF089EF1DF093EF1DF08C
:103B1200000E016E000E026E000E036E000E046EA9
:103B220024EF1EF0960E0A6E9DEF1DF00A2AD89021
:103B32000E320D320C320B32000E0B14056E000EDB
:103B42000C14066E000E0D14076EFE0E0E14086E97
:103B52000550061007100810D8A4B2EF1DF0B4EFFC
:103B62001DF097EF1DF0C2EF1DF00A2A010E0B2681
:103B7200000E0C220D220E22D8900E320D320C3283
:103B82000B32000E0B14056E000E0C14066E000EA6
:103B92000D14076EFF0E0E14086E05500610071066
:103BA2000810D8A4D7EF1DF0D9EF1DF0B6EF1DF025
:103BB200E1EF1DF00A06D8900B360C360D360E36A4
:103BC2000DBEE6EF1DF0E8EF1DF0F0EF1DF0020E66
:103BD2000A60EEEF1DF0F0EF1DF0DBEF1DF00AB012
:103BE200F5EF1DF0F7EF1DF0F8EF1DF00D9ED890E8
:103BF2000A320AC005F0066A076A086A05C008F0B8
:103C0200076A066A056A05500B1206500C12075025
:103C12000D1208500E120950D8B412EF1EF014EF14
:103C22001EF01CEF1EF004BE1BEF1EF019EF1EF07B
:103C32001CEF1EF00E8E0BC001F00CC002F00DC086
:103C420003F00EC004F0120032EC23F017EC23F064
:103C52003E01F881F8B130EF1EF032EF1EF02BEF8B
:103C62001EF0EF516F00C0FB56F0576A56C057F076
:103C7200566A56105C6E57505D6E5CC001F05DC0B6
:103C820002F0000E02BEFF0E036E046E010E4BEC3C
:103C92001DF001C00FF002C010F003C011F004C00B
:103CA20012F0000E136E000E146EA00E156E3A0E78
:103CB200166E46EC17F00FC06CF010C06DF011C01C
:103CC2006EF012C06FF06CC00FF06DC010F06EC0DD
:103CD20011F06FC012F0CF0E136EF70E146EFD0EC0
:103CE200156E410E166E46EC17F00FC068F010C04C
:103CF20069F011C06AF012C06BF0C00E0001F66FDD
:103D02000E0EF76F68C0F8F069C0F9F06AC0FAF0F9
:103D12006BC0FBF0FCEC22F0C00E016E130E026EC3
:103D22006DEC21F0000E0A6E010E0B6E0B50D8A442
:103D3200200E0C6E010E85EC22F0040E0A6EC00EEF
:103D42000B6E0C6A020E85EC22F029EF1EF0FEEFDC
:103D5200FFF0033404340A6E0A50D8A4B3EF1EF005
:103D6200B5EF1EF0BFEF1EF0000E016E000E026EE8
:103D7200000E036E000E046E2CEF1FF001C005F062
:103D820002C006F003C007F004C008F0200ECFEF17
:103D92001EF0D8900832073206320532E82ECAEFFA
:103DA2001EF00550096E038EFF0E0116FF0E02165D
:103DB200FF0E0316000E0416960E0A5E0ABEE6EF0A
:103DC2001EF0E4EF1EF0FCEF1EF00A50800A970F7F
:103DD200D8B0EEEF1EF0F0EF1EF0F2EF1EF0B5EFEE
:103DE2001EF0D89004320332023201320A3EF2EF60
:103DF2001EF014EF1FF01F0E0A6402EF1FF004EF13
:103E02001FF00CEF1FF0B5EF1EF0D890013602360E
:103E1200033604360A060A50D8A412EF1FF014EF34
:103E22001FF006EF1FF00950D8B41AEF1FF01CEF75
:103E32001FF024EF1FF0041E031E021E016C000E71
:103E420002220322042201C001F002C002F003C0D8
:103E520003F004C004F01200000E2814306E000EAD
:103E62002914316E800E2A14326E7F0E2B14336E9B
:103E72003050311032103310D8A442EF1FF044EF0B
:103E82001FF04CEF1FF0000E286E000E296E000E80
:103E92002A6E000E2B6E000E2C14306E000E2D14A6
:103EA200316E800E2E14326E7F0E2F14336E305010
:103EB200311032103310D8A461EF1FF063EF1FF0FE
:103EC2006BEF1FF0000E2C6E000E2D6E000E2E6E8C
:103ED200000E2F6E2BAE70EF1FF072EF1FF07BEF14
:103EE2001FF0286C291ED8B0292A2A1ED8B02A2AE7
:103EF200800E2B562FAE80EF1FF082EF1FF08BEF5C
:103F02001FF02C6C2D1ED8B02D2A2E1ED8B02E2AB2
:103F1200800E2F56000E281A000E291A000E2A1A99
:103F2200800E2B1A000E2C1A000E2D1A000E2E1ABD
:103F3200800E2F1A2C50285C2D5029582E502A58AA
:103F42002F502B58D8B0A8EF1FF0AAEF1FF0ADEFFB
:103F52001FF0D890AEEF1FF0D880120064C00BF0B3
:103F620065C00CF066C00DF067C00EF001C00BF02A
:103F720002C00CF003C00DF004C00EF00BC005F03F
:103F82000CC006F00DC007F00EC008F0180ECFEFFF
:103F92001FF0D8900832073206320532E82ECAEFF7
:103FA2001FF00550096E0A6A09500A10D8A4DCEF06
:103FB2001FF0DEEF1FF0FEEF1FF0D8900B34056EFE
:103FC2000C34066E0D34076E0E34086E0550061062
:103FD20007100810D8A4F0EF1FF0F2EF1FF0F8EF6F
:103FE2001FF0000E026E020E016E2DEF20F0000E89
:103FF200026E030E016E2DEF20F009280A10D8A4DC
:1040020005EF20F007EF20F029EF20F00BC005F0BC
:104012000CC006F00DC007F00EC008F0090ED890D3
:104022000536063607360836E82E10EF20F0055022
:10403200061007100810D8B421EF20F024EF20F06A
:10404200010E25EF20F0000E016E026A2DEF20F026
:10405200000E026E040E016E1200000E0B6E000EB8
:104062000A6E0750D96EDA6A6F007FFFF6FF200EE4
:10407200F76E000EF86E0800F5502A0AD8A444EF35
:1040820020F046EF20F06EEF20F00750D96EDA6A8A
:10409200DF2A0850D96EDA6A020EDF26DF5CD96E9B
:1040A200DA6A6F0078FF0AF06F0078FF0BF084EF96
:1040B20020F00AC001F00BC002F0000E046E0A0EDE
:1040C200036E49EC23F0095001240A6E000E02200F
:1040D2000B6E0750D96EDA6ADF2A0750D96EDA6A98
:1040E2006F007FFFF6FF200EF76E000EF86E0800DD
:1040F200F550D00F096E090E096482EF20F084EFAB
:1041020020F05AEF20F00AC007F00BC008F01200AE
:104112000350D8B48FEF20F091EF20F099EF20F008
:104122000350D8A497EF20F099EF20F09EEF20F0F3
:1041320001508BEC23F0DEEF20F00350D96EDA6AE7
:104142000A0ED926DE50DE10D8B4AAEF20F0ACEF6A
:1041520020F0C5EF20F00350D96EDA6A0A0ED92694
:104162000350E16EE26A030EE126DE50E65CE650A1
:10417200800A086EDE50800A0858D8B0C3EF20F0DB
:10418200C5EF20F0DEEF20F00350D96EDA6A030E9D
:10419200D926DF50046E0350D96EDA6ADF50042448
:1041A200D96EDA6A600007F0DFFF0350D96EDA6A6F
:1041B200030ED926DE2A000EDD221200000E0114A3
:1041C200096E000E02140A6E800E03140B6E7F0E2F
:1041D20004140C6E09500A100B100C10D8A4F4EF42
:1041E20020F0F6EF20F0FEEF20F0000E016E000E40
:1041F200026E000E036E000E046E000E0514096EB0
:10420200000E06140A6E800E07140B6E7F0E081441
:104212000C6E09500A100B100C10D8A413EF21F0E9
:1042220015EF21F01DEF21F0000E056E000E066E57
:10423200000E076E000E086E055001180FE10650C1
:1042420002180CE10750031809E108500418D8B409
:104252002DEF21F02FEF21F032EF21F0D89033EF44
:1042620021F0D88012004FEF21F0600023F0F6FF1A
:10427200600027F0F7FF000EF86E1F0EF76403D000
:104282000800F55007D06F00DBFFE1FF6F00DFFF92
:10429200E2FFE7506DEC23F0084A092A600023F0A0
:1042A200F6FF600027F0F7FF000EF86E1F0EF764AE
:1042B20003D00800F55007D06F00DBFFE1FF6F006D
:1042C200DFFFE2FFE7500009D8A46AEF21F06CEFAC
:1042D20021F036EF21F01200000E046E000E036E84
:1042E20075EF21F0034A042A01500324D96EDA6AD9
:1042F200DF50D8A47FEF21F081EF21F073EF21F09E
:1043020086EF21F0034A042A022A60000BF0F6FF2E
:10431200200EF76E000EF86E01500324D96EDA6A91
:1043220008006F00D7FFDFFFDF50D8A49BEF21F01A
:104332009DEF21F083EF21F0120011BEA5EF21F0D5
:10434200A3EF21F0A9EF21F0000E116E000E106E06
:10435200000E146E000E136EB9EF21F0000E026E05
:10436200200E016E0EC003F089EC20F0134A142ACD
:104372001050135C1450800A126E1150800A1258A9
:10438200D8A0C6EF21F0C8EF21F0AFEF21F00FC0A7
:1043920009F00EC00AF0A5EC22F0120004BED4EF20
:1043A20021F0D6EF21F0E0EF21F001C001F002C0D0
:1043B20002F003C003F004C004F0F9EF21F001C0E1
:1043C20005F002C006F003C007F004C008F0051EA5
:1043D200061E071E081E052A000E062207220822B4
:1043E20005C001F006C002F007C003F008C004F0E7
:1043F2001200000E046E000E036E13EF22F0000E88
:10440200066E000E056E054A062A065009E1A50E43
:10441200055CD8A00FEF22F011EF22F004EF22F09A
:10442200034A042A0150035C02500458D8A01CEF2E
:1044320022F01EEF22F000EF22F01200000E2C1AE2
:10444200000E2D1A000E2E1A800E2F1A28C001F00F
:1044520029C002F02AC003F02BC004F02CC005F0E2
:104462002DC006F02EC007F02FC008F0E6EC14F0C5
:1044720001C028F002C029F003C02AF004C02BF0CA
:10448200120046C048F04EEF22F045C03BF0480E05
:104492003C6E47C03DF043EC1CF0600023F1F6FF98
:1044A200200EF76E000EF86E0800F5500009D8A431
:1044B2005DEF22F05FEF22F046EF22F0000E466E33
:1044C200000E456E120002C007F001C006F077EF41
:1044D20022F00750D96EDA6ADF50056E072A0650BD
:1044E200D96EDA6A600017F0DFFF062A0306D8A049
:1044F2000406032806E10428D8A482EF22F084EF00
:1045020022F06AEF22F012000D6E020E0D608CEFA7
:1045120022F08EEF22F097EF22F00A500F0B800963
:104522000E6E0E507CEC23F09EEF22F00A500F0B21
:10453200C0090E6E0E507CEC23F00BC008F00CC0CC
:1045420009F034EC21F01200000E0D6E000E0C6E1C
:10455200B4EF22F00BC001F0026A0AC003F089EC4A
:1045620020F00C4A0D2A09500C24D96EDA6ADF5069
:104572000B6E0B50D8A4C0EF22F0C2EF22F0ABEFCB
:1045820022F0120001C004F0022A0204036E60004D
:104592000FF0F6FF200EF76E000EF86E042A0404E8
:1045A200D96EDA6A08006F00D7FFDFFFDF50D8A4A8
:1045B200DDEF22F0DFEF22F0C5EF22F01200015012
:1045C200021003100410D8B4E9EF22F0EBEF22F04E
:1045D200F3EF22F0000E011A000E021A000E031A67
:1045E200800E041A01C001F002C002F003C003F001
:1045F20004C004F01200F80E496EF6C04AF0000E34
:104602004E6E000E4D6E000E556E000E546E4A0E2A
:10461200456EF7C046F0490E476E42EC22F00001AB
:10462200F6514D24D96EDA6ADF6A1200C2803A016D
:1046320040813E01F851F30B0409F86FF889000E2E
:10464200F16FF88F000EFF6F000EEF6F000EF06F2C
:10465200000EF66F000EF76F000EF36F000EF46F90
:104662001200000E026E0F0E016EFAEC21F0000E27
:10467200C36E000EC56E010E7CEC23F0380E7CEC8E
:1046820023F00C0E7CEC23F0060E7CEC23F01200DF
:10469200015003026F00CCFF05F06F00D0FF06F05F
:1046A20001500402F350062602500302F35006267C
:1046B20005C001F006C002F0120000EE60F06A0EC2
:1046C200EE6AE806FDE100EE58F0070EEE6AE80633
:1046D200FDE1000125EF1EF0076E60001FF0BBFF39
:1046E200BD80BD820000BD92000E026E010E016E01
:1046F200FAEC21F01200076E60001FF0BBFFBD90C4
:10470200BD820000BD92000E026E030E016EFAEC35
:0647120021F0120012006C
:020000040001F9
:04FFFC005EEF23F0A1
:020000040030CA
:0A000000F8FFFFFF9FFFFFFFFFFF67
:00000001FF
