:0400000057EF20F0A6
:10009000C5EC20F023C005F024C006F059EC20F098
:1000A00005C027F006C028F0234A242A27C003F001
:1000B00028C004F032EC21F00B0E0E6E260E0D6EF1
:1000C0005E0EE82EFED70D2EFCD70E2EFAD723C0DB
:1000D00005F024C006F059EC20F005C021F006C060
:1000E00022F02306D8A0240621C003F022C004F089
:1000F00032EC21F00B0E0E6E260E0D6E5E0EE82E0B
:10010000FED70D2EFCD70E2EFAD727042810D8A420
:100110008CEF00F08EEF00F0DAEF00F021042210F7
:10012000D8A495EF00F097EF00F0DAEF00F0CA8A5C
:10013000000E106E000E0F6ECB84070E0E6E170EA3
:100140000D6E6A0EE82EFED70D2EFCD70E2EFAD7B6
:1001500000D0CBB4AEEF00F0B1EF00F0010EB2EF83
:1001600000F0000EFF0A0D6E0D460D46CB500D1827
:10017000FB0B0D18CB6E070E0E6E170E0D6E6A0E72
:10018000E82EFED70D2EFCD70E2EFAD700D00F4A40
:10019000102A10BED5EF00F0105009E1060E0F5CDA
:1001A000D8A0D5EF00F0D7EF00F09CEF00F0CA9A8E
:1001B0000CEF01F0000E126E000E116ECBB6E3EFE5
:1001C00000F0E6EF00F0010EE7EF00F0000EFF0A8E
:1001D0000D6E0D460D460D46CB500D18F70B0D1844
:1001E000CB6E030E0E6E8A0E0D6E560EE82EFED7E7
:1001F0000D2EFCD70E2EFAD7114A122A12BE0AEF84
:1002000001F0125009E1060E115CD8A00AEF01F0CE
:0C0210000CEF01F0DEEF00F057EF20F0E3
:022000000000DE
:104008002B102B102B102B102B102B102B102B10D0
:1040180089102B102B102B102B102B102B102B1062
:104028002B102B102B102B102B102B102B102B10B0
:104038002B102B102B102B102B102B102B102B10A0
:104048002B102B102B102B102B102B102B102B1090
:104058002B102B102B102B102B102B102B102B1080
:104068002B102B102B102B102B102B102B102B1070
:104078002B102B102B102B102B102B102B102B1060
:104088002B102B102B102B102B102B102B102B1050
:104098002B102B102B102B102B102B102B102B1040
:1040A8002B102B10FF00F1EF20F0000E0C6E010E0C
:1040B8000B6E000E0A6E000E096E05500610D8A48D
:1040C80068EF20F06AEF20F096EF20F089EF20F0FB
:1040D80009C003F00AC004F032EC21F0CAA077EF5F
:1040E80020F079EF20F088EF20F0094A0A2A0B0E19
:1040F800086E260E076E5E0EE82EFED7072EFCD73A
:10410800082EFAD789EF20F00000CBB28EEF20F00E
:1041180090EF20F06CEF20F009C005F00AC006F01F
:10412800C4EF20F0000E0C6E000E0B6EB9EF20F0FD
:104138000BC003F00CC004F032EC21F0CAA2A7EFC8
:1041480020F0A9EF20F0B8EF20F00B4A0C2A0B0E54
:10415800086E260E076E5E0EE82EFED7072EFCD7D9
:10416800082EFAD7B9EF20F00000CBB2BEEF20F04E
:10417800C0EF20F09CEF20F00BC005F00CC006F05B
:104188001200000ECA6E000E3A01406F000EBA6EA1
:10419800030EC26E000ECA6E000ECB6E000E506F7C
:1041A800000EBB6E030EC36E030E516F000ECB6E76
:1041B800000ECD6E000E706F000EBD6E000EC56E47
:1041C800390181819181A191E70ED26E000ED76EDF
:1041D800400ED66E080ED56E1200560EF66E420EC2
:1041E800F76E000EF86E00EE13F010EE0EF00900F8
:1041F8006F00D7FFEEFFE550E150F9E1266A256A26
:10420800246A236A226A216A080ED56E400ED66E89
:0A421800000ED76E000148EF00F021
:104224003901A1A118EF21F01AEF21F02AEF21F0B2
:10423400CB880D0E026EAF0E016EB60EE82EFED7C1
:10424400012EFCD7022EFAD700D0CB983901A191C8
:1042540011003F065B4F666D7D077F6F0100010013
:0E4264000350130FD96EDA6ADF50CD6E1200D0
:020000040030CA
:0A000000F8FFFFFF9FFFFFFFFFFF67
:00000001FF
