:100020003F065B4F666D7D077F67777C395E797130
:100040003F01CD6A3F01BD6A3A01706B3F01800EEE
:10005000C56E3F01CB6A3F01BB6A3A01506B3F015D
:04006000030EC36E5A
:10008000000E136EF86EF76E200EF66E08006F000D
:10009000D7FFCDFF6FEC00F0000E146E6F002CFF49
:1000A00014F01464F9D7020E145E0FE601E0E8D7ED
:1000B0006FEC00F0132AF62A100E136080EC00F0AB
:1000C00008006F00D7FFCDFFE7D76FEC00F0F60612
:1000D00013061BE608006F00D7FFCDFFDDD7020E29
:1000E000106E020E116E050E126E1006FEE1020E6B
:1000F000106E1106FAE1020E116E1206F6E1120000
:10010000000E136E200EF66E12000F0E136E2F0EE1
:04011000F66EE0D7D0
:020000040030CA
:0A000000F8FFFFFF9FFFFFFFFFFF67
:00000001FF
