:04000000C4EF00F059
:100030000100020003000A000400050006000B0096
:100040000700080009000C000E0000000F000D0062
:1000600076EC12F0000ECA6E0F0ECB6E000ECD6E47
:10007000000E296E000E286E000E276E000E266EF2
:10008000000E256E000E246E000E236E000E226EF2
:10009000030E216E8A0E206E560EE82EFED7202EFD
:1000A000FCD7212EFAD70F0ECB18D8B45AEF00F098
:1000B0005CEF00F053EF00F02EEC12F0030E216E17
:1000C0008A0E206E560EE82EFED7202EFCD7212E4B
:1000D000FAD70F0ECB18D8B470EF00F072EF00F023
:1000E00069EF00F092EC12F0030E216E8A0E206E82
:1000F000560EE82EFED7202EFCD7212EFAD70F0E53
:10010000CB18D8B486EF00F088EF00F07FEF00F056
:10011000E6EC11F0030E216E8A0E206E560EE82ECC
:10012000FED7202EFCD7212EFAD70F0ECB18D8B42D
:100130009CEF00F09EEF00F095EF00F028C009F072
:1001400029C00AF026C00BF027C00CF024C00DF027
:1001500025C00EF011EC11F0030E216E8A0E206EF8
:10016000560EE82EFED7202EFCD7212EFAD70F0EE2
:10017000CB18D8B4BEEF00F0C0EF00F0B7EF00F03E
:0C01800032EF00F0C4EF00F0DCEF12F0F2
:102000000000000E116E000E106E000E136E000E1A
:10201000126E000E156E000E146E000E196E000E7C
:10202000186EC30E036ECD0EE82EFED7032EFCD71E
:1020300000006F002CFF16F0176A0F0E161817100D
:10204000D8A425EF10F027EF10F02DEF10F0000EC0
:10205000026E000E016E10EF11F01F0E1618171011
:10206000D8A435EF10F037EF10F041EF10F0000E6C
:10207000196E100E186E000E136E030E126E71EFB5
:1020800010F02F0E16181710D8A449EF10F04BEFD0
:1020900010F055EF10F0000E196E200E186E000EA5
:1020A000136E020E126E71EF10F04F0E161817100D
:1020B000D8A45DEF10F05FEF10F069EF10F0000EA4
:1020C000196E400E186E000E136E010E126E71EF37
:1020D00010F0000E196E800E186E000E136E000EBA
:1020E000126E1850070FCB6ECB50036E046A070EAA
:1020F0001824056E000E1920066E0350051809E11C
:1021000004500618D8B487EF10F089EF10F08FEF65
:1021100010F0000E116E000E106ECFEF10F0185080
:102120000B0FCB6ECB50036E046A0B0E1824056E9A
:10213000000E1920066E0350051809E10450061818
:10214000D8B4A5EF10F0A7EF10F0ADEF10F0000E2F
:10215000116E010E106ECFEF10F018500D0FCB6EF8
:10216000CB50036E046A0D0E1824056E000E192064
:10217000066E0350051809E104500618D8B4C3EFE1
:1021800010F0C5EF10F0CBEF10F0000E116E020E44
:10219000106ECFEF10F0000E116E030E106E10C017
:1021A00003F011C004F0D8900336043612C005F0D5
:1021B00013C006F0D89005360636D8900536063698
:1021C000D89005360636300E076E000E086E000EEB
:1021D000096E055007240A6E065008200B6E000E8B
:1021E00009200C6E03500A240D6E04500B200E6E55
:1021F000000E0C200F6E600037F0F6FF60003BF021
:10220000F7FF60003FF0F8FF09006F00D4FF14F003
:102210000A006F00D4FF15F014C001F015C002F0E1
:102220001200000E126E000E116E5CEF11F00B50DA
:102230000924116E0C500A20126E000ECA6E7AEF3D
:1022400011F00B50095C116E0C500A58126E12BE40
:102250002EEF11F02CEF11F01DEF11F011C001F075
:1022600012C002F0ADEC12F001C011F002C012F089
:10227000010ECA6E7AEF11F009C001F00AC002F037
:102280000BC003F00CC004F0C7EC12F001C011F059
:1022900002C012F01DEF11F009C001F00AC002F0F7
:1022A0000BC003F00CC004F084EC11F001C011F07D
:1022B00002C012F01DEF11F00DC00FF00EC010F0B3
:1022C0001050000AD8B467EF11F07AEF11F00F50F8
:1022D0000A0AD8B417EF11F0010AD8B421EF11F0AF
:1022E000070AD8B43CEF11F0010AD8B44CEF11F052
:1022F0007AEF11F00F0ECB6E11C022F012C023F056
:1023000060008BF0CDFF1200000E066E04BE8DEF54
:1023100011F08BEF11F093EF11F0036C041ED8B0A5
:10232000042A010E066E02BE9AEF11F098EF11F02A
:10233000A0EF11F0016C021ED8B0022A010E061A9D
:10234000000E086E000E076E03500410D8B4ABEFF9
:1023500011F0ADEF11F0D5EF11F0010E056EB5EFF4
:1023600011F0D89003360436052A04AEBAEF11F006
:10237000BCEF11F0B1EF11F0D890073608360350DA
:10238000015C04500258D8A0C8EF11F0CAEF11F058
:10239000CFEF11F00350015E0450025A0780D8902D
:1023A00004320332052EBCEF11F00650D8B4DBEF37
:1023B00011F0DDEF11F0E1EF11F0076C081ED8B05D
:1023C000082A07C001F008C002F01200000E1F6EBC
:1023D000000E1E6E01EC10F001C01CF002C01DF0DA
:1023E0001CC01EF01DC01FF00F0ECB6E030E1B6E27
:1023F0008A0E1A6E560EE82EFED71A2EFCD71B2E0A
:10240000FAD70F0ECB18D8B408EF12F00AEF12F07B
:1024100001EF12F001EC10F001C01CF002C01DF041
:102420001EC001F01FC002F0000E046E0A0E036E03
:10243000C7EC12F001C01EF002C01FF01C501E2697
:102440001D501F22080ECA6E0F0ECB6E1EC026F046
:102450001FC027F060009BF0CDFF1200000E1F6E22
:10246000000E1E6E01EC10F001C01CF002C01DF049
:102470001CC01EF01DC01FF00F0ECB6E030E1B6E96
:102480008A0E1A6E560EE82EFED71A2EFCD71B2E79
:10249000FAD70F0ECB18D8B450EF12F052EF12F05B
:1024A00049EF12F001EC10F001C01CF002C01DF069
:1024B0001EC001F01FC002F0000E046E0A0E036E73
:1024C000C7EC12F001C01EF002C01FF01C501E2607
:1024D0001D501F22020ECA6E0F0ECB6E1EC028F0BA
:1024E0001FC029F06000A3F0CDFF1200000ECA6EDD
:1024F000000EBA6E000E3A01406F000EC26E000E62
:10250000CD6E000EBD6E000E706F000EC56E000E1B
:10251000CB6E000EBB6E000E506FF00EC36E0F0E32
:10252000CB6E12000F0ECB18D8B499EF12F09BEFC0
:1025300012F092EF12F001EC10F001C01AF002C09C
:102540001BF0040ECA6E0F0ECB6E1AC024F01BC017
:1025500025F0600093F0CDFF120002BEB2EF12F042
:10256000B4EF12F0BAEF12F001C001F002C002F0B5
:10257000C6EF12F001C003F002C004F0031E041EF7
:10258000034A042A03C001F004C002F01200015003
:1025900003026F00CCFF05F06F00D0FF06F0015082
:1025A0000402F350062602500302F350062605C02B
:1025B00001F006C002F012002B6A2A6A000130EF17
:0225C00000F029
:020000040030CA
:0A000000F8FFFFFF9FFFFFFFFFFF67
:00000001FF
