:10002400000EC56E0A0E206E30EC00F0F60E216E46
:10003400000F48E64AEC00F0F60E0A080AE605E06E
:10004400010E226E020ECD6E0300000E226ECD6EE6
:100054000300020E226E040ECD6E0300236E000E0A
:10006400246E0A0E242A235EFDE22326240623C0DE
:1000740060F024C023F0000E246E0A0E242A235EAE
:10008400FDE22326240623C061F024C062F012009E
:10009400236E000E246E0A0E242A235EFDE223261C
:1000A400240623C070F024C023F0000E246E0A0E30
:1000B400242A235EFDE22326240623C071F024C0F3
:0C00C40072F01200E86C4AEC00F0BAD7B1
:020000040030CA
:0A000000F8FFFFFF9FFFFFFFFFFF67
:00000001FF
